{
  "_format": "hh-sol-artifact-1",
  "contractName": "MemoriaImutavel",
  "sourceName": "contracts/MemoriaImutavel.sol",
  "abi": [
    {
      "anonymous": false,
      "inputs": [
        {
          "indexed": true,
          "internalType": "address",
          "name": "autor",
          "type": "address"
        },
        {
          "indexed": false,
          "internalType": "string",
          "name": "mensagem",
          "type": "string"
        },
        {
          "indexed": false,
          "internalType": "string",
          "name": "cid",
          "type": "string"
        },
        {
          "indexed": false,
          "internalType": "uint256",
          "name": "timestamp",
          "type": "uint256"
        }
      ],
      "name": "MemoriaRegistrada",
      "type": "event"
    },
    {
      "inputs": [
        {
          "internalType": "address",
          "name": "_autor",
          "type": "address"
        }
      ],
      "name": "getMemoriasPorAutor",
      "outputs": [
        {
          "components": [
            {
              "internalType": "string",
              "name": "mensagem",
              "type": "string"
            },
            {
              "internalType": "string",
              "name": "cid",
              "type": "string"
            },
            {
              "internalType": "uint256",
              "name": "timestamp",
              "type": "uint256"
            },
            {
              "internalType": "address",
              "name": "autor",
              "type": "address"
            }
          ],
          "internalType": "struct MemoriaImutavel.Memoria[]",
          "name": "",
          "type": "tuple[]"
        }
      ],
      "stateMutability": "view",
      "type": "function"
    },
    {
      "inputs": [],
      "name": "getTotalMemorias",
      "outputs": [
        {
          "internalType": "uint256",
          "name": "",
          "type": "uint256"
        }
      ],
      "stateMutability": "view",
      "type": "function"
    },
    {
      "inputs": [
        {
          "internalType": "uint256",
          "name": "",
          "type": "uint256"
        }
      ],
      "name": "memorias",
      "outputs": [
        {
          "internalType": "string",
          "name": "mensagem",
          "type": "string"
        },
        {
          "internalType": "string",
          "name": "cid",
          "type": "string"
        },
        {
          "internalType": "uint256",
          "name": "timestamp",
          "type": "uint256"
        },
        {
          "internalType": "address",
          "name": "autor",
          "type": "address"
        }
      ],
      "stateMutability": "view",
      "type": "function"
    },
    {
      "inputs": [
        {
          "internalType": "string",
          "name": "_mensagem",
          "type": "string"
        },
        {
          "internalType": "string",
          "name": "_cid",
          "type": "string"
        }
      ],
      "name": "registrarMemoria",
      "outputs": [],
      "stateMutability": "nonpayable",
      "type": "function"
    }
  ],
  "bytecode": "0x608060405234801561001057600080fd5b50610a77806100206000396000f3fe608060405234801561001057600080fd5b506004361061004c5760003560e01c80631b00a83f1461005157806320985d051461007a578063955d825f1461009d578063a7861934146100b2575b600080fd5b61006461005f366004610604565b6100c3565b604051610071919061067a565b60405180910390f35b61008d61008836600461071e565b6103bb565b6040516100719493929190610737565b6100b06100ab366004610821565b610515565b005b600054604051908152602001610071565b60606000805b60005481101561013257836001600160a01b0316600082815481106100f0576100f0610885565b60009182526020909120600360049092020101546001600160a01b031603610120578161011c8161089b565b9250505b8061012a8161089b565b9150506100c9565b5060008167ffffffffffffffff81111561014e5761014e61077e565b6040519080825280602002602001820160405280156101b357816020015b6101a0604051806080016040528060608152602001606081526020016000815260200160006001600160a01b031681525090565b81526020019060019003908161016c5790505b5090506000805b6000548110156103b157856001600160a01b0316600082815481106101e1576101e1610885565b60009182526020909120600360049092020101546001600160a01b03160361039f576000818154811061021657610216610885565b906000526020600020906004020160405180608001604052908160008201805461023f906108c2565b80601f016020809104026020016040519081016040528092919081815260200182805461026b906108c2565b80156102b85780601f1061028d576101008083540402835291602001916102b8565b820191906000526020600020905b81548152906001019060200180831161029b57829003601f168201915b505050505081526020016001820180546102d1906108c2565b80601f01602080910402602001604051908101604052809291908181526020018280546102fd906108c2565b801561034a5780601f1061031f5761010080835404028352916020019161034a565b820191906000526020600020905b81548152906001019060200180831161032d57829003601f168201915b5050509183525050600282015460208201526003909101546001600160a01b0316604090910152835184908490811061038557610385610885565b6020026020010181905250818061039b9061089b565b9250505b806103a98161089b565b9150506101ba565b5090949350505050565b600081815481106103cb57600080fd5b90600052602060002090600402016000915090508060000180546103ee906108c2565b80601f016020809104026020016040519081016040528092919081815260200182805461041a906108c2565b80156104675780601f1061043c57610100808354040283529160200191610467565b820191906000526020600020905b81548152906001019060200180831161044a57829003601f168201915b50505050509080600101805461047c906108c2565b80601f01602080910402602001604051908101604052809291908181526020018280546104a8906108c2565b80156104f55780601f106104ca576101008083540402835291602001916104f5565b820191906000526020600020905b8154815290600101906020018083116104d857829003601f168201915b5050505060028301546003909301549192916001600160a01b0316905084565b6040805160808101825283815260208101839052429181019190915233606082015260008054600181018255908052815182916004027f290decd9548b62a8d60345a988386fc84ba6bc95484008f6362f93160ef3e5630190819061057a908261094b565b506020820151600182019061058f908261094b565b506040828101516002830155606090920151600390910180546001600160a01b0319166001600160a01b039092169190911790555133907f29ce4a6db0a07af7ab084f4f49ff2eef449e47e4a8975d254c339bbf10c676ce906105f790869086904290610a0b565b60405180910390a2505050565b60006020828403121561061657600080fd5b81356001600160a01b038116811461062d57600080fd5b9392505050565b6000815180845260005b8181101561065a5760208185018101518683018201520161063e565b506000602082860101526020601f19601f83011685010191505092915050565b60006020808301818452808551808352604092508286019150828160051b87010184880160005b8381101561071057603f198984030185528151608081518186526106c782870182610634565b915050888201518582038a8701526106df8282610634565b838a0151878b01526060938401516001600160a01b03169390960192909252505093860193908601906001016106a1565b509098975050505050505050565b60006020828403121561073057600080fd5b5035919050565b60808152600061074a6080830187610634565b828103602084015261075c8187610634565b604084019590955250506001600160a01b039190911660609091015292915050565b634e487b7160e01b600052604160045260246000fd5b600082601f8301126107a557600080fd5b813567ffffffffffffffff808211156107c0576107c061077e565b604051601f8301601f19908116603f011681019082821181831017156107e8576107e861077e565b8160405283815286602085880101111561080157600080fd5b836020870160208301376000602085830101528094505050505092915050565b6000806040838503121561083457600080fd5b823567ffffffffffffffff8082111561084c57600080fd5b61085886838701610794565b9350602085013591508082111561086e57600080fd5b5061087b85828601610794565b9150509250929050565b634e487b7160e01b600052603260045260246000fd5b6000600182016108bb57634e487b7160e01b600052601160045260246000fd5b5060010190565b600181811c908216806108d657607f821691505b6020821081036108f657634e487b7160e01b600052602260045260246000fd5b50919050565b601f82111561094657600081815260208120601f850160051c810160208610156109235750805b601f850160051c820191505b818110156109425782815560010161092f565b5050505b505050565b815167ffffffffffffffff8111156109655761096561077e565b6109798161097384546108c2565b846108fc565b602080601f8311600181146109ae57600084156109965750858301515b600019600386901b1c1916600185901b178555610942565b600085815260208120601f198616915b828110156109dd578886015182559484019460019091019084016109be565b50858210156109fb5787850151600019600388901b60f8161c191681555b5050505050600190811b01905550565b606081526000610a1e6060830186610634565b8281036020840152610a308186610634565b91505082604083015294935050505056fea2646970667358221220c66408d9b79d49edbd52ccc9f0736a277f75ae2eb73ef1e04b0f13df6d9f96fd64736f6c63430008140033",
  "linkReferences": {},
  "deployedLinkReferences": {}
}